{"abi":[{"type":"function","name":"getNumber","inputs":[],"outputs":[{"name":"","type":"uint256","internalType":"uint256"}],"stateMutability":"view"},{"type":"function","name":"myNumber","inputs":[],"outputs":[{"name":"","type":"uint256","internalType":"uint256"}],"stateMutability":"view"}],"bytecode":{"object":"0x6080604052348015600e575f5ffd5b5060d880601a5f395ff3fe6080604052348015600e575f5ffd5b50600436106030575f3560e01c806323fd0e40146034578063f2c9ecd814604e575b5f5ffd5b603a6068565b60405160459190608b565b60405180910390f35b6054606d565b604051605f9190608b565b60405180910390f35b5f5481565b5f5f54905090565b5f819050919050565b6085816075565b82525050565b5f602082019050609c5f830184607e565b9291505056fea264697066735822122059a4f5a053dd0d660a5e7ca37c77f9669a72cda27476b5d27b796113a17c84f964736f6c63430008210033","linkReferences":{}},"methodIdentifiers":{"getNumber()":"f2c9ecd8","myNumber()":"23fd0e40"},"id":0}